:0D0E70002020202057454C434F4D452000C9
:100D2B00010C00010F000B30454D505459204C4F16
:100D3B005420000A2046554C4C204C4F5420000E9A
:100D4B00104E6F2E204F6620436172733A200004C1
:050D5B0008000000008B
:100CA700AB07AA06C3EB940AEA940050098A088B9B
:100CB70009E4F50AF50BC3EB940AEA9400401E7C9D
:100CC700007D0AAF03AE021208F68E0A8F0BAE0242
:100CD700AF037C007D0A1208F68C088D097B007A29
:040CE7000079082266
:100DC100120DD553900F439030D2927E007F961230
:040DD1000DD5C292E8
:100DD500E4FDFCC3ED9FEE6480F8EC648098500759
:070DE5000DBD00010C80ECC4
:010DEC0022E4
:100D9300E4F52AF52BC3E52B9FE52A9E501FE4F5C6
:100DA3002CF52D052DE52D7002052CB410F5E52C41
:0E0DB300B427F0052BE52B70DC052A80D82232
:040D61007F037E008E
:100D6500E4F52AF52BC3E52B9FE52A9E501FE4F5F4
:100D75002CF52D052DE52D7002052CB4E8F5E52C97
:0E0D8500B403F0052BE52B70DC052A80D82284
:100BFA0075A0F0E4F50FC2A2C2A385A00F530FF0AF
:100C0A00E50F6002D2B6E50F7002C2B6D2A2C2A345
:100C1A0085A00F530FF0E50F6002D2B7E50F7002FF
:100C2A00C2B7C2A2D2A385A00F530FF0E50F60028C
:100C3A00D291E50F7002C291D2A2D2A385A00F531E
:100C4A000FF0E50F6002D290E50F7002C290E4F552
:020C5A000F2267
:1009D700AB07AA06E4F53BEB25E0FFEA33FEE53B70
:1009E700C39FE49E501C758003120D61758006122B
:1009F7000D6575800C120D65758009120D65053B37
:100A070080D5AF05AE04120D93E4F53BEB25E0FF6F
:100A1700EA33FEC3E53B9FE49E501C758009120D27
:100A27006175800C120D65758006120D6575800362
:100A3700120D65053B80D5120D61758006120D6597
:040A4700E4F5802230
:100A4B00AB07AA06E4F53BEB25E0FFEA33FEE53BFB
:100A5B00C39FE49E501C758030120D61758060122F
:100A6B000D657580C0120D65758090120D65053B87
:100A7B0080D5AF05AE04120D93E4F53BEB25E0FFFB
:100A8B00EA33FEC3E53B9FE49E501C758090120D2C
:100A9B00617580C0120D65758060120D65758030B3
:100AAB00120D65053B80D5120D61758060120D65C9
:040ABB00E4F58022BC
:100E1600AB07C29353900FEB54F04290120DCA5396
:100E2600900FEBC454F04290D2927F96120DD5C229
:040E360092020DD542
:050DED00253BF8E6FFC4
:100DF200AB07D29353900FEB54F04290120DCA53AB
:100E0200900FEBC454F04290D2927F96120DD5C24D
:040E120092020DD566
:100C5C007F987E3A120DC17F947E11120DC17F2CAC
:100C6C000E120DD553900F439030D2921E120DCE12
:100C7C007F8A7E02120DD553900F439020120DCA1D
:100C8C007F8A7E02120DD57F28120E167F0C120E53
:0B0C9C00167F01120E167F06020E16D6
:100E3A007F01120E16E4F53B7430120DED053BE509
:0B0E4A003BC3940940F27F0C020E161F
:100E55007F01120E16E4F53B7420120DED053BE5FE
:0B0E65003BC3940840F27F0C020E1605
:100CEB007F01120E16E4F53B7410120DED053BE57A
:100CFB003BC3940D40F2AF0C7E00120CA7E4F53B06
:100D0B00C37401953B25E02408F808E62430FF1254
:100D1B000DF2053BE53BC3940240E57F0C020E163A
:03000300020B2EBF
:100B2E00C0E0C0F0C0D075D000C000C001C002C08F
:090B3E0003C004C005C006C00795
:100B4700750D00750E0A30B406750D00750E147D0F
:100B5700327C00AF0EAE0D1209D7050CE50C243020
:100B6700FF24C060092410700A120E3A8008120E82
:060B7700558003120CEB97
:100B7D00D007D006D005D004D003D002D001D000CC
:070B8D00D0D0D0F0D0E0321F
:03001300020B9449
:100B9400C0E0C0F0C0D075D000C000C001C002C029
:090BA40003C004C005C006C0072F
:100BAD00750D00750E0A30B506750D00750E147DA8
:100BBD00327C00AF0EAE0D120A4B150CE50C243035
:100BCD00FF24C060092410700A120E3A8008120E1C
:060BDD00558003120CEB31
:100BE300D007D006D005D004D003D002D001D00066
:070BF300D0D0D0F0D0E032B9
:100ABF00783C7C007D007BFF7A0E79707E007F0D85
:100ACF001208D0E4F580F5A0F590F5B0120C5CE4B7
:100ADF00F53B743C120DED053BE53BC3940C40F226
:100AEF007F0C120E167F067E00120D93120E3A75B2
:100AFF00880575A885D2B0120BFAE50C7006C2B145
:100B0F00F5A080F330B00EE50CD394004007D2B1BE
:0F0B1F0075A0FF80E220B0DFC2B1E4F5A080D85E
:0300000002094BA7
:0C094B00787FE4F6D8FD7581480209921F
:10080000E709F608DFFA8046E709F208DFFA803EDA
:1008100088828C83E709F0A3DFFA8032E309F608C7
:10082000DFFA8078E309F208DFFA807088828C832F
:10083000E309F0A3DFFA806489828A83E0A3F608E3
:10084000DFFA805889828A83E0A3F208DFFA804CBD
:1008500080D280FA80C680D4806980F28033801094
:1008600080A680EA809A80A880DA80E280CA8033FD
:1008700089828A83ECFAE493A3C8C582C8CCC58375
:10088000CCF0A3C8C582C8CCC583CCDFE9DEE78045
:100890000D89828A83E493A3F608DFF9ECFAA9F0C4
:1008A000EDFB2289828A83ECFAE0A3C8C582C8CC1A
:1008B000C583CCF0A3C8C582C8CCC583CCDFEADE33
:1008C000E880DB89828A83E493A3F208DFF980CC95
:1008D00088F0EF60010E4E60C388F0ED2402B4048E
:1008E0000050B9F582EB2402B4040050AF23234535
:0608F00082239008507302
:1008F600BC000BBE0029EF8DF084FFADF022E4CCE6
:10090600F875F008EF2FFFEE33FEEC33FCEE9DECAE
:10091600984005FCEE9DFE0FD5F0E9E4CEFD22EDF4
:10092600F8F5F0EE8420D21CFEADF075F008EF2F3E
:10093600FFED33FD4007985006D5F0F222C398FD2F
:050946000FD5F0EA22CC
:10095700020ABFE493A3F8E493A34003F68001F2ED
:1009670008DFF48029E493A3F85407240CC8C333A1
:10097700C4540F4420C8834004F456800146F6DF70
:10098700E4800B0102040810204080900D2BE47EC8
:10099700019360BCA3FF543F30E509541FFEE49365
:1009A700A360010ECF54C025E060A840B8E493A32C
:1009B700FAE493A3F8E493A3C8C582C8CAC583CA57
:1009C700F0A3C8C582C8CAC583CADFE9DEE780BE0F
:010D60000092
:00000001FF
