:0D0D81002020202057454C434F4D452000B9
:100CAB00010C00010D000B2A454D505459204C4F9F
:100CBB005420000A1C46554C4C204C4F5420000E1F
:100CCB000E4E6F2E204F6620436172733A20000444
:050CDB0008000000000C
:100C6700AB07AA06C3EB940AEA940050098A088BDB
:100C770009E4F50AF50BC3EB940AEA9400401E7CDD
:100C8700007D0AAF03AE021208F68E0A8F0BAE0282
:100C9700AF037C007D0A1208F68C088D097B007A69
:040CA70000790822A6
:060CE100AD0C7F0A7E004D
:100CE700E4F526F527C3E5279FE5269E501FE4F583
:100CF70028F5290529E52970020528B410F5E52806
:0E0D0700B427F00527E52770DC052680D822EA
:060D1500120D1B758006A3
:100D1B00E4F526F527C3E5279FE5269E501FE4F54E
:100D2B0028F5290529E52970020528B4E8F5E528F9
:0E0D3B00B403F00527E52770DC052680D822DA
:100D4900C2B77590FFC2B5D2B6309706C2B7D2B74F
:050D590080F7C2B72283
:0E0D7300120D49C2B5C2B68F90D2B7C2B722D8
:070D5E00742A2535F8E6FFB9
:0E0D6500120D49D2B5C2B68F90D2B7C2B722D6
:03000300020A5797
:100A5700C0E0C0F0C0D075D000C000C001C002C067
:090A670003C004C005C006C0076D
:100A7000120CE17535007580037F037E00120D15A1
:100A800075800C120D1B758009120D1B0535E5359F
:100A9000C3948240E17F467E00120CE775350075F5
:100AA00080097F037E00120D1B75800C120D1575D9
:100AB0008003120D1B0535E535C3948240E1758036
:100AC00000050CE50C2430FD24C0601A2440702E73
:100AD0007F01120D73753500120D5E0535E535C3C6
:100AE000940940F480537F01120D73753500741C16
:100AF000120D600535E535C3940840F2803B7F0157
:100B0000120D73753500740E120D600535E535C391
:100B1000940D40F2AF0C7E00120C67753500C37463
:100B200001953525E02408F808E62430FF120D650C
:0E0B30000535E535C3940240E57F0C120D73C8
:100B3E00D007D006D005D004D003D002D001D0000B
:070B4E00D0D0D0F0D0E0325E
:0300130002094B94
:10094B00C0E0C0F0C0D075D000C000C001C002C074
:09095B0003C004C005C006C0077A
:10096400120CE17535007580307F017E00120D1B7D
:10097400758060120D1B7580C0120D1B758090125E
:100984000D1B0535E535C3948240DB7F467E00129E
:100994000CE77535007580907F017E00120D1B7584
:1009A40080C0120D1B758060120D1B758030120DF6
:1009B4001B0535E535C3948240DB758000150CE5D5
:1009C4000C2430FDE50C24C0601A2440702E7F01F5
:1009D400120D73753500120D5E0535E535C39409A6
:1009E40040F480537F01120D73753500741C120D91
:1009F400600535E535C3940840F2803B7F01120D54
:100A040073753500740E120D600535E535C3940D0C
:100A140040F2AF0C7E00120C67753500C37401956B
:100A24003525E02408F808E62430FF120D65053565
:0C0A3400E535C3940240E57F0C120D7301
:100A4000D007D006D005D004D003D002D001D0000A
:070A5000D0D0D0F0D0E0325D
:100BE10078367C007D007BFF7A0D79817E007F0D58
:100BF1001208D0E4F580F5A0F590F5B07F3C120D18
:100C0100737F0E120D737F01120D73F53574361259
:100C11000D600535E535C3940C40F27F0C120D7360
:100C21007F3C7E00120CE77F01120D73E4F5351253
:100C31000D5E0535E535C3940940F47F0C120D7343
:100C410075880575A885D2B4E50C7006C2B1F5A00A
:100C510080F630B407D2B175A0FF80EC20B4E9C2B0
:060C6100B1E4F5A080E201
:03000000020B559B
:0C0B5500787FE4F6D8FD758142020B9C0D
:10080000E709F608DFFA8046E709F208DFFA803EDA
:1008100088828C83E709F0A3DFFA8032E309F608C7
:10082000DFFA8078E309F208DFFA807088828C832F
:10083000E309F0A3DFFA806489828A83E0A3F608E3
:10084000DFFA805889828A83E0A3F208DFFA804CBD
:1008500080D280FA80C680D4806980F28033801094
:1008600080A680EA809A80A880DA80E280CA8033FD
:1008700089828A83ECFAE493A3C8C582C8CCC58375
:10088000CCF0A3C8C582C8CCC583CCDFE9DEE78045
:100890000D89828A83E493A3F608DFF9ECFAA9F0C4
:1008A000EDFB2289828A83ECFAE0A3C8C582C8CC1A
:1008B000C583CCF0A3C8C582C8CCC583CCDFEADE33
:1008C000E880DB89828A83E493A3F208DFF980CC95
:1008D00088F0EF60010E4E60C388F0ED2402B4048E
:1008E0000050B9F582EB2402B4040050AF23234535
:0608F00082239008507302
:1008F600BC000BBE0029EF8DF084FFADF022E4CCE6
:10090600F875F008EF2FFFEE33FEEC33FCEE9DECAE
:10091600984005FCEE9DFE0FD5F0E9E4CEFD22EDF4
:10092600F8F5F0EE8420D21CFEADF075F008EF2F3E
:10093600FFED33FD4007985006D5F0F222C398FD2F
:050946000FD5F0EA22CC
:100B6100020BE1E493A3F8E493A34003F68001F2BE
:100B710008DFF48029E493A3F85407240CC8C33395
:100B8100C4540F4420C8834004F456800146F6DF64
:100B9100E4800B0102040810204080900CABE47E3D
:100BA100019360BCA3FF543F30E509541FFEE49359
:100BB100A360010ECF54C025E060A840B8E493A320
:100BC100FAE493A3F8E493A3C8C582C8CAC583CA4B
:100BD100F0A3C8C582C8CAC583CADFE9DEE780BE03
:010CE0000013
:00000001FF
